:104000005542200135D0085A82450011314000390F
:104010003F4000000F9308249242001120012F839B
:104020009F4FDE400011F8233F4000000F9307240C
:104030009242001120011F83CF430011F923B240A7
:10404000805A2001F240E0FF5600F240070057007E
:10405000F2D070003200F2D070003100F2D0400097
:104060003600B24010006201B240803E7201B240A0
:104070001001600132D0D80032D0F000FD3F304056
:10408000DC400F120E120D125F4231003E407000F4
:104090000ECF0F4E0F110F110F110F114F4F4F93E6
:1040A00002245F53013C5F434F5F4F5F4F5F4F5FA1
:1040B0005D4231007E4070004ECF4EDDC24E310079
:1040C0005E4231007FF070004ECFC24E3100F2E010
:0E40D000400035003D413E413F4100130013CA
:10FFE0007E407E407E407E407E407E4082407E401D
:10FFF0007E407E407E407E407E407E407E4000408F
:0400000300004000B9
:00000001FF
