:020000020000FC
:10400000314000393C4000113D400900B0124C42A3
:10401000B012A440B012AA420A120B1208120912DE
:10402000061231820B4C384005003E420D430C4BCA
:10403000B0123A4219426001B240A0026001B012CF
:104040006E42193CB0126C41C64C00004D4C0C1233
:10405000C14A00003C41B0128E414A4C36530F41D8
:104060000F53069FEF2F0A9306203E420D410D533A
:104070000C4BB01216420F48084F38531F930D389F
:104080000A43B0120A414C93F6277C403300B01229
:10409000AE41064136500700E23F8249600131528D
:1040A00030402E42B240805A2001F240E0005600DB
:1040B000F240070057003C400111B0121840F2D006
:1040C00070003200F2D070003100F240C0001B00DE
:1040D000F2D030000500F2D010007800F2D01000CD
:1040E0007900F24003007C00C2437D00F2404A00A8
:1040F0007B00D2C37800F2D02000010032D2C2434C
:104100000011D24201117F00FF3FB01292423C40A9
:10411000E001B0125E42B012A2423C405A00B0121E
:104120005E42B01288424D4C3C40DC00B0125E4210
:104130000D9302205C4330414C433041B012924217
:104140003C400600B0125E42B012A2423C40090060
:10415000B0125E42B01288424D4C3C403700B01263
:104160005E420C12C14D00003C4130410A120B125C
:104170004A435B43063CB0123C414C9301244ADB6A
:104180004B5B4B93F8234C4A3B413A4130414CED59
:104190000F43033C12C34C101F533F9207345CB3D0
:1041A000F92B12C34C107CE08C00F63F30410A1210
:1041B0004D4C5A43063C4C4D4A4A0CFAB0127C42D4
:1041C0004A5A4A93F8233A4130410F12F2920011B1
:1041D000082C5F4200114F4FD24F01117F00D25384
:1041E00000113F410013B01292423C400600B01251
:1041F0005E42B0129A423C40400030405E42B012F3
:1042000092423C403C00B0125E42B0129A423C40A6
:104210000A0030405E420F4C043CFF4D00001F532B
:104220003E530E93FA2330413541344137413641F4
:10423000394138413B413A4130410F4C043CCF4D6C
:1042400000001F533E530E93FA2330410F4C0F5D75
:10425000033CCC4300001C530C9FFB2330411E4207
:1042600070010F4E0F5C829F7001FB2B3041F2C03A
:1042700010002A00F2C01000290030410C930224E3
:104280003040E6413040FE415C4228007CF01000A6
:104290003041F2D010002A003041F2C010002A0054
:1042A0003041F2C010002A0030413040AE42304070
:0442B000B242FF3FD8
:02FFE400CA4110
:02FFFE000040C1
:0400000300004000B9
:00000001FF
